{
  "contractName": "MedRep",
  "abi": [
    {
      "inputs": [
        {
          "internalType": "address",
          "name": "admin",
          "type": "address"
        }
      ],
      "stateMutability": "nonpayable",
      "type": "constructor"
    },
    {
      "anonymous": false,
      "inputs": [
        {
          "indexed": true,
          "internalType": "uint256",
          "name": "date",
          "type": "uint256"
        },
        {
          "indexed": true,
          "internalType": "address",
          "name": "from",
          "type": "address"
        },
        {
          "indexed": false,
          "internalType": "address",
          "name": "collectionAddr",
          "type": "address"
        },
        {
          "indexed": true,
          "internalType": "uint256",
          "name": "royalty",
          "type": "uint256"
        }
      ],
      "name": "FacRoyalty",
      "type": "event"
    },
    {
      "anonymous": false,
      "inputs": [
        {
          "indexed": true,
          "internalType": "uint256",
          "name": "date",
          "type": "uint256"
        },
        {
          "indexed": false,
          "internalType": "address",
          "name": "collectionAddr",
          "type": "address"
        },
        {
          "indexed": true,
          "internalType": "address",
          "name": "from",
          "type": "address"
        },
        {
          "indexed": false,
          "internalType": "string",
          "name": "title",
          "type": "string"
        },
        {
          "indexed": false,
          "internalType": "string",
          "name": "symbol",
          "type": "string"
        },
        {
          "indexed": true,
          "internalType": "uint256",
          "name": "royalty",
          "type": "uint256"
        }
      ],
      "name": "NewCollection",
      "type": "event"
    },
    {
      "inputs": [
        {
          "internalType": "string",
          "name": "title",
          "type": "string"
        },
        {
          "internalType": "string",
          "name": "symbol",
          "type": "string"
        }
      ],
      "name": "createTCollect",
      "outputs": [],
      "stateMutability": "nonpayable",
      "type": "function"
    },
    {
      "inputs": [],
      "name": "getAllMediRecords",
      "outputs": [
        {
          "internalType": "contract MediRecords[]",
          "name": "",
          "type": "address[]"
        }
      ],
      "stateMutability": "view",
      "type": "function"
    },
    {
      "inputs": [
        {
          "internalType": "address",
          "name": "royaltyPayer",
          "type": "address"
        }
      ],
      "name": "royaltyPay",
      "outputs": [],
      "stateMutability": "payable",
      "type": "function"
    },
    {
      "inputs": [
        {
          "internalType": "address",
          "name": "payer",
          "type": "address"
        }
      ],
      "name": "getRoyaltyPayer",
      "outputs": [
        {
          "internalType": "uint256",
          "name": "",
          "type": "uint256"
        }
      ],
      "stateMutability": "view",
      "type": "function"
    },
    {
      "inputs": [
        {
          "internalType": "uint256",
          "name": "amount",
          "type": "uint256"
        }
      ],
      "name": "withDraw",
      "outputs": [],
      "stateMutability": "nonpayable",
      "type": "function"
    }
  ],
  "bytecode": "0x6080604052601960025534801561001557600080fd5b5060405162005cd338038062005cd3833981810160405281019061003991906100e3565b80600160006101000a81548173ffffffffffffffffffffffffffffffffffffffff021916908373ffffffffffffffffffffffffffffffffffffffff16021790555050610110565b600080fd5b600073ffffffffffffffffffffffffffffffffffffffff82169050919050565b60006100b082610085565b9050919050565b6100c0816100a5565b81146100cb57600080fd5b50565b6000815190506100dd816100b7565b92915050565b6000602082840312156100f9576100f8610080565b5b6000610107848285016100ce565b91505092915050565b615bb380620001206000396000f3fe608060405260043610620000505760003560e01c806314174f331462000055578063a8444c1c1462000083578063dfee8f6814620000a3578063ef99c27214620000d3578063fd0342fa1462000117575b600080fd5b3480156200006257600080fd5b506200008160048036038101906200007b919062000570565b62000145565b005b620000a160048036038101906200009b919062000607565b6200028a565b005b348015620000b057600080fd5b50620000bb62000337565b604051620000ca919062000761565b60405180910390f35b348015620000e057600080fd5b50620000ff6004803603810190620000f9919062000607565b620003c7565b6040516200010e919062000796565b60405180910390f35b3480156200012457600080fd5b506200014360048036038101906200013d919062000915565b62000410565b005b3373ffffffffffffffffffffffffffffffffffffffff16600160009054906101000a900473ffffffffffffffffffffffffffffffffffffffff1673ffffffffffffffffffffffffffffffffffffffff1614620001d8576040517f08c379a0000000000000000000000000000000000000000000000000000000008152600401620001cf90620009fb565b60405180910390fd5b8047116200021d576040517f08c379a0000000000000000000000000000000000000000000000000000000008152600401620002149062000a6d565b60405180910390fd5b600160009054906101000a900473ffffffffffffffffffffffffffffffffffffffff1673ffffffffffffffffffffffffffffffffffffffff166108fc829081150290604051600060405180830381858888f1935050505015801562000286573d6000803e3d6000fd5b5050565b34600360008373ffffffffffffffffffffffffffffffffffffffff1673ffffffffffffffffffffffffffffffffffffffff1681526020019081526020016000206000828254620002db919062000abe565b92505081905550348173ffffffffffffffffffffffffffffffffffffffff16427f2a937bdb4eb0135ea685e426c7e10d7ed63d5a634060489ef37ff301f4733536336040516200032c919062000b0a565b60405180910390a450565b60606000805480602002602001604051908101604052809291908181526020018280548015620003bd57602002820191906000526020600020905b8160009054906101000a900473ffffffffffffffffffffffffffffffffffffffff1673ffffffffffffffffffffffffffffffffffffffff168152602001906001019080831162000372575b5050505050905090565b6000600360008373ffffffffffffffffffffffffffffffffffffffff1673ffffffffffffffffffffffffffffffffffffffff168152602001908152602001600020549050919050565b600082823330604051620004249062000513565b62000433949392919062000b9f565b604051809103906000f08015801562000450573d6000803e3d6000fd5b5090506000819080600181540180825580915050600190039060005260206000200160009091909190916101000a81548173ffffffffffffffffffffffffffffffffffffffff021916908373ffffffffffffffffffffffffffffffffffffffff1602179055506002543373ffffffffffffffffffffffffffffffffffffffff16427f76360004a0fe107bd531aa5ef55345eb8d636045ebdf29e0bc0447dfafbe4ed6848787604051620005069392919062000bfa565b60405180910390a4505050565b614f388062000c4683390190565b6000604051905090565b600080fd5b600080fd5b6000819050919050565b6200054a8162000535565b81146200055657600080fd5b50565b6000813590506200056a816200053f565b92915050565b6000602082840312156200058957620005886200052b565b5b6000620005998482850162000559565b91505092915050565b600073ffffffffffffffffffffffffffffffffffffffff82169050919050565b6000620005cf82620005a2565b9050919050565b620005e181620005c2565b8114620005ed57600080fd5b50565b6000813590506200060181620005d6565b92915050565b60006020828403121562000620576200061f6200052b565b5b60006200063084828501620005f0565b91505092915050565b600081519050919050565b600082825260208201905092915050565b6000819050602082019050919050565b6000819050919050565b6000620006906200068a6200068484620005a2565b62000665565b620005a2565b9050919050565b6000620006a4826200066f565b9050919050565b6000620006b88262000697565b9050919050565b620006ca81620006ab565b82525050565b6000620006de8383620006bf565b60208301905092915050565b6000602082019050919050565b6000620007048262000639565b62000710818562000644565b93506200071d8362000655565b8060005b8381101562000754578151620007388882620006d0565b97506200074583620006ea565b92505060018101905062000721565b5085935050505092915050565b600060208201905081810360008301526200077d8184620006f7565b905092915050565b620007908162000535565b82525050565b6000602082019050620007ad600083018462000785565b92915050565b600080fd5b600080fd5b6000601f19601f8301169050919050565b7f4e487b7100000000000000000000000000000000000000000000000000000000600052604160045260246000fd5b6200080882620007bd565b810181811067ffffffffffffffff821117156200082a5762000829620007ce565b5b80604052505050565b60006200083f62000521565b90506200084d8282620007fd565b919050565b600067ffffffffffffffff82111562000870576200086f620007ce565b5b6200087b82620007bd565b9050602081019050919050565b82818337600083830152505050565b6000620008ae620008a88462000852565b62000833565b905082815260208101848484011115620008cd57620008cc620007b8565b5b620008da84828562000888565b509392505050565b600082601f830112620008fa57620008f9620007b3565b5b81356200090c84826020860162000897565b91505092915050565b600080604083850312156200092f576200092e6200052b565b5b600083013567ffffffffffffffff81111562000950576200094f62000530565b5b6200095e85828601620008e2565b925050602083013567ffffffffffffffff81111562000982576200098162000530565b5b6200099085828601620008e2565b9150509250929050565b600082825260208201905092915050565b7f57443a4e41000000000000000000000000000000000000000000000000000000600082015250565b6000620009e36005836200099a565b9150620009f082620009ab565b602082019050919050565b6000602082019050818103600083015262000a1681620009d4565b9050919050565b7f57443a4942000000000000000000000000000000000000000000000000000000600082015250565b600062000a556005836200099a565b915062000a628262000a1d565b602082019050919050565b6000602082019050818103600083015262000a888162000a46565b9050919050565b7f4e487b7100000000000000000000000000000000000000000000000000000000600052601160045260246000fd5b600062000acb8262000535565b915062000ad88362000535565b925082820190508082111562000af35762000af262000a8f565b5b92915050565b62000b0481620005c2565b82525050565b600060208201905062000b21600083018462000af9565b92915050565b600081519050919050565b60005b8381101562000b5257808201518184015260208101905062000b35565b60008484015250505050565b600062000b6b8262000b27565b62000b7781856200099a565b935062000b8981856020860162000b32565b62000b9481620007bd565b840191505092915050565b6000608082019050818103600083015262000bbb818762000b5e565b9050818103602083015262000bd1818662000b5e565b905062000be2604083018562000af9565b62000bf1606083018462000af9565b95945050505050565b600060608201905062000c11600083018662000af9565b818103602083015262000c25818562000b5e565b9050818103604083015262000c3b818462000b5e565b905094935050505056fe60806040523480156200001157600080fd5b5060405162004f3838038062004f388339818101604052810190620000379190620002e3565b838381600090816200004a9190620005de565b5080600190816200005c9190620005de565b50505081600960006101000a81548173ffffffffffffffffffffffffffffffffffffffff021916908373ffffffffffffffffffffffffffffffffffffffff16021790555080600a60006101000a81548173ffffffffffffffffffffffffffffffffffffffff021916908373ffffffffffffffffffffffffffffffffffffffff16021790555050505050620006c5565b6000604051905090565b600080fd5b600080fd5b600080fd5b600080fd5b6000601f19601f8301169050919050565b7f4e487b7100000000000000000000000000000000000000000000000000000000600052604160045260246000fd5b620001548262000109565b810181811067ffffffffffffffff821117156200017657620001756200011a565b5b80604052505050565b60006200018b620000eb565b905062000199828262000149565b919050565b600067ffffffffffffffff821115620001bc57620001bb6200011a565b5b620001c78262000109565b9050602081019050919050565b60005b83811015620001f4578082015181840152602081019050620001d7565b60008484015250505050565b60006200021762000211846200019e565b6200017f565b90508281526020810184848401111562000236576200023562000104565b5b62000243848285620001d4565b509392505050565b600082601f830112620002635762000262620000ff565b5b81516200027584826020860162000200565b91505092915050565b600073ffffffffffffffffffffffffffffffffffffffff82169050919050565b6000620002ab826200027e565b9050919050565b620002bd816200029e565b8114620002c957600080fd5b50565b600081519050620002dd81620002b2565b92915050565b600080600080608085870312156200030057620002ff620000f5565b5b600085015167ffffffffffffffff811115620003215762000320620000fa565b5b6200032f878288016200024b565b945050602085015167ffffffffffffffff811115620003535762000352620000fa565b5b62000361878288016200024b565b93505060406200037487828801620002cc565b92505060606200038787828801620002cc565b91505092959194509250565b600081519050919050565b7f4e487b7100000000000000000000000000000000000000000000000000000000600052602260045260246000fd5b60006002820490506001821680620003e657607f821691505b602082108103620003fc57620003fb6200039e565b5b50919050565b60008190508160005260206000209050919050565b60006020601f8301049050919050565b600082821b905092915050565b600060088302620004667fffffffffffffffffffffffffffffffffffffffffffffffffffffffffffffffff8262000427565b62000472868362000427565b95508019841693508086168417925050509392505050565b6000819050919050565b6000819050919050565b6000620004bf620004b9620004b3846200048a565b62000494565b6200048a565b9050919050565b6000819050919050565b620004db836200049e565b620004f3620004ea82620004c6565b84845462000434565b825550505050565b600090565b6200050a620004fb565b62000517818484620004d0565b505050565b5b818110156200053f576200053360008262000500565b6001810190506200051d565b5050565b601f8211156200058e57620005588162000402565b620005638462000417565b8101602085101562000573578190505b6200058b620005828562000417565b8301826200051c565b50505b505050565b600082821c905092915050565b6000620005b36000198460080262000593565b1980831691505092915050565b6000620005ce8383620005a0565b9150826002028217905092915050565b620005e98262000393565b67ffffffffffffffff8111156200060557620006046200011a565b5b620006118254620003cd565b6200061e82828562000543565b600060209050601f83116001811462000656576000841562000641578287015190505b6200064d8582620005c0565b865550620006bd565b601f198416620006668662000402565b60005b82811015620006905784890151825560018201915060208501945060208101905062000669565b86831015620006b05784890151620006ac601f891682620005a0565b8355505b6001600288020188555050505b505050505050565b61486380620006d56000396000f3fe608060405234801561001057600080fd5b50600436106101585760003560e01c80638668b641116100c3578063c87b56dd1161007c578063c87b56dd146103d3578063d1a33b3b14610403578063e985e9c51461041f578063ef36fd801461044f578063f77d6be01461046b578063fe6bf5951461048757610158565b80638668b6411461031557806395d89b4114610331578063a22cb4651461034f578063abebe8661461036b578063b09afec114610387578063b88d4fde146103b757610158565b80633c1fec15116101155780633c1fec151461024357806342842e0e1461025f5780636352211e1461027b57806363944faf146102ab57806370a08231146102c757806374df6ebc146102f757610158565b806301ffc9a71461015d57806306fdde031461018d578063081812fc146101ab578063095ea7b3146101db578063150b7a02146101f757806323b872dd14610227575b600080fd5b610177600480360381019061017291906127f1565b6104a3565b6040516101849190612839565b60405180910390f35b610195610585565b6040516101a291906128e4565b60405180910390f35b6101c560048036038101906101c0919061293c565b610617565b6040516101d291906129aa565b60405180910390f35b6101f560048036038101906101f091906129f1565b61069c565b005b610211600480360381019061020c9190612b66565b6107b3565b60405161021e9190612bf8565b60405180910390f35b610241600480360381019061023c9190612c13565b6107c7565b005b61025d60048036038101906102589190612c66565b610827565b005b61027960048036038101906102749190612c13565b610b2d565b005b6102956004803603810190610290919061293c565b610b4d565b6040516102a291906129aa565b60405180910390f35b6102c560048036038101906102c09190612d6e565b610bfe565b005b6102e160048036038101906102dc9190612ddd565b610ee8565b6040516102ee9190612e19565b60405180910390f35b6102ff610f9f565b60405161030c91906129aa565b60405180910390f35b61032f600480360381019061032a9190612c66565b610fc9565b005b61033961106d565b60405161034691906128e4565b60405180910390f35b61036960048036038101906103649190612e60565b6110ff565b005b61038560048036038101906103809190612f41565b611115565b005b6103a1600480360381019061039c919061293c565b6112b7565b6040516103ae91906128e4565b60405180910390f35b6103d160048036038101906103cc9190612b66565b61135f565b005b6103ed60048036038101906103e8919061293c565b6113c1565b6040516103fa91906128e4565b60405180910390f35b61041d6004803603810190610418919061306b565b611512565b005b610439600480360381019061043491906130e3565b611635565b6040516104469190612839565b60405180910390f35b61046960048036038101906104649190613123565b6116c9565b005b6104856004803603810190610480919061317f565b6117c1565b005b6104a1600480360381019061049c91906131db565b6119f9565b005b60007f80ac58cd000000000000000000000000000000000000000000000000000000007bffffffffffffffffffffffffffffffffffffffffffffffffffffffff1916827bffffffffffffffffffffffffffffffffffffffffffffffffffffffff1916148061056e57507f5b5e139f000000000000000000000000000000000000000000000000000000007bffffffffffffffffffffffffffffffffffffffffffffffffffffffff1916827bffffffffffffffffffffffffffffffffffffffffffffffffffffffff1916145b8061057e575061057d82611a94565b5b9050919050565b60606000805461059490613266565b80601f01602080910402602001604051908101604052809291908181526020018280546105c090613266565b801561060d5780601f106105e25761010080835404028352916020019161060d565b820191906000526020600020905b8154815290600101906020018083116105f057829003601f168201915b5050505050905090565b600061062282611afe565b610661576040517f08c379a000000000000000000000000000000000000000000000000000000000815260040161065890613309565b60405180910390fd5b6004600083815260200190815260200160002060009054906101000a900473ffffffffffffffffffffffffffffffffffffffff169050919050565b60006106a782610b4d565b90508073ffffffffffffffffffffffffffffffffffffffff168373ffffffffffffffffffffffffffffffffffffffff1603610717576040517f08c379a000000000000000000000000000000000000000000000000000000000815260040161070e9061339b565b60405180910390fd5b8073ffffffffffffffffffffffffffffffffffffffff16610736611b6a565b73ffffffffffffffffffffffffffffffffffffffff16148061076557506107648161075f611b6a565b611635565b5b6107a4576040517f08c379a000000000000000000000000000000000000000000000000000000000815260040161079b9061342d565b60405180910390fd5b6107ae8383611b72565b505050565b600063150b7a0260e01b9050949350505050565b6107d86107d2611b6a565b82611c2b565b610817576040517f08c379a000000000000000000000000000000000000000000000000000000000815260040161080e906134bf565b60405180910390fd5b610822838383611d09565b505050565b60006008600084815260200190815260200160002060010160016008600086815260200190815260200160002060010180549050610865919061350e565b8154811061087657610875613542565b5b9060005260206000200160009054906101000a900473ffffffffffffffffffffffffffffffffffffffff169050600073ffffffffffffffffffffffffffffffffffffffff168273ffffffffffffffffffffffffffffffffffffffff1603610912576040517f08c379a0000000000000000000000000000000000000000000000000000000008152600401610909906135bd565b60405180910390fd5b600073ffffffffffffffffffffffffffffffffffffffff168173ffffffffffffffffffffffffffffffffffffffff1603610981576040517f08c379a000000000000000000000000000000000000000000000000000000000815260040161097890613629565b60405180910390fd5b8073ffffffffffffffffffffffffffffffffffffffff168273ffffffffffffffffffffffffffffffffffffffff16036109ef576040517f08c379a00000000000000000000000000000000000000000000000000000000081526004016109e690613695565b60405180910390fd5b3073ffffffffffffffffffffffffffffffffffffffff166342842e0e8284866040518463ffffffff1660e01b8152600401610a2c939291906136b5565b600060405180830381600087803b158015610a4657600080fd5b505af1158015610a5a573d6000803e3d6000fd5b5050505060086000848152602001908152602001600020600101829080600181540180825580915050600190039060005260206000200160009091909190916101000a81548173ffffffffffffffffffffffffffffffffffffffff021916908373ffffffffffffffffffffffffffffffffffffffff1602179055503073ffffffffffffffffffffffffffffffffffffffff16427fd2988c26f5b432eede7eeb607a88e5114d3ec474a21333aa696bf86bf39053dd858486604051610b20939291906136ec565b60405180910390a3505050565b610b488383836040518060200160405280600081525061135f565b505050565b6000806002600084815260200190815260200160002060009054906101000a900473ffffffffffffffffffffffffffffffffffffffff169050600073ffffffffffffffffffffffffffffffffffffffff168173ffffffffffffffffffffffffffffffffffffffff1603610bf5576040517f08c379a0000000000000000000000000000000000000000000000000000000008152600401610bec90613795565b60405180910390fd5b80915050919050565b60008190506000839050600073ffffffffffffffffffffffffffffffffffffffff168273ffffffffffffffffffffffffffffffffffffffff1603610c77576040517f08c379a0000000000000000000000000000000000000000000000000000000008152600401610c6e90613801565b60405180910390fd5b600073ffffffffffffffffffffffffffffffffffffffff168173ffffffffffffffffffffffffffffffffffffffff1603610ce6576040517f08c379a0000000000000000000000000000000000000000000000000000000008152600401610cdd9061386d565b60405180910390fd5b3373ffffffffffffffffffffffffffffffffffffffff168273ffffffffffffffffffffffffffffffffffffffff1603610d54576040517f08c379a0000000000000000000000000000000000000000000000000000000008152600401610d4b906138d9565b60405180910390fd5b60005b8551811015610e8d573073ffffffffffffffffffffffffffffffffffffffff166342842e0e8385898581518110610d9157610d90613542565b5b60200260200101516040518463ffffffff1660e01b8152600401610db7939291906136b5565b600060405180830381600087803b158015610dd157600080fd5b505af1158015610de5573d6000803e3d6000fd5b5050505060086000878381518110610e0057610dff613542565b5b60200260200101518152602001908152602001600020600101839080600181540180825580915050600190039060005260206000200160009091909190916101000a81548173ffffffffffffffffffffffffffffffffffffffff021916908373ffffffffffffffffffffffffffffffffffffffff1602179055508080610e85906138f9565b915050610d57565b503073ffffffffffffffffffffffffffffffffffffffff16427f02e62fab89ba4cdff717e2e629697b43acae13d40fa22b26b3c065609d59fef0873386604051610ed9939291906139ff565b60405180910390a35050505050565b60008073ffffffffffffffffffffffffffffffffffffffff168273ffffffffffffffffffffffffffffffffffffffff1603610f58576040517f08c379a0000000000000000000000000000000000000000000000000000000008152600401610f4f90613aaf565b60405180910390fd5b600360008373ffffffffffffffffffffffffffffffffffffffff1673ffffffffffffffffffffffffffffffffffffffff168152602001908152602001600020549050919050565b6000600960009054906101000a900473ffffffffffffffffffffffffffffffffffffffff16905090565b6000820361100c576040517f08c379a000000000000000000000000000000000000000000000000000000000815260040161100390613b1b565b60405180910390fd5b611016818361069c565b3073ffffffffffffffffffffffffffffffffffffffff16427ff7f6cb4e23d208895fc92c88883520881ab276681082554da6344c084265e3cd843385604051611061939291906136ec565b60405180910390a35050565b60606001805461107c90613266565b80601f01602080910402602001604051908101604052809291908181526020018280546110a890613266565b80156110f55780601f106110ca576101008083540402835291602001916110f5565b820191906000526020600020905b8154815290600101906020018083116110d857829003601f168201915b5050505050905090565b61111161110a611b6a565b8383611f64565b5050565b61111f60076120d0565b600061112b60076120e6565b905061113733826120f4565b336008600083815260200190815260200160002060000160006101000a81548173ffffffffffffffffffffffffffffffffffffffff021916908373ffffffffffffffffffffffffffffffffffffffff16021790555060086000828152602001908152602001600020600101339080600181540180825580915050600190039060005260206000200160009091909190916101000a81548173ffffffffffffffffffffffffffffffffffffffff021916908373ffffffffffffffffffffffffffffffffffffffff160217905550806008600083815260200190815260200160002060020181905550816008600083815260200190815260200160002060030190816112419190613ce7565b5061124c308261069c565b3373ffffffffffffffffffffffffffffffffffffffff163073ffffffffffffffffffffffffffffffffffffffff167f7ae4f3e117f8a62cd38dce520270d377f48b8c95bad1f588d765d6070c74de9c42846040516112ab929190613db9565b60405180910390a35050565b60606008600083815260200190815260200160002060030180546112da90613266565b80601f016020809104026020016040519081016040528092919081815260200182805461130690613266565b80156113535780601f1061132857610100808354040283529160200191611353565b820191906000526020600020905b81548152906001019060200180831161133657829003601f168201915b50505050509050919050565b61137061136a611b6a565b83611c2b565b6113af576040517f08c379a00000000000000000000000000000000000000000000000000000000081526004016113a6906134bf565b60405180910390fd5b6113bb848484846122c1565b50505050565b60606113cc82611afe565b61140b576040517f08c379a000000000000000000000000000000000000000000000000000000000815260040161140290613e54565b60405180910390fd5b600060066000848152602001908152602001600020805461142b90613266565b80601f016020809104026020016040519081016040528092919081815260200182805461145790613266565b80156114a45780601f10611479576101008083540402835291602001916114a4565b820191906000526020600020905b81548152906001019060200180831161148757829003601f168201915b5050505050905060006114b561231d565b905060008151036114ca57819250505061150d565b6000825111156114ff5780826040516020016114e7929190613eb0565b6040516020818303038152906040529250505061150d565b61150884612334565b925050505b919050565b60005b82518110156115c75761155c83828151811061153457611533613542565b5b602002602001015183838151811061154f5761154e613542565b5b60200260200101516123db565b81818151811061156f5761156e613542565b5b60200260200101516008600085848151811061158e5761158d613542565b5b6020026020010151815260200190815260200160002060030190816115b39190613ce7565b5080806115bf906138f9565b915050611515565b503373ffffffffffffffffffffffffffffffffffffffff163073ffffffffffffffffffffffffffffffffffffffff167fd60c99530179ee14ba0783d14c13d8d5a7a00f268a632a4f8b7ec396a48ed3de42858560405161162993929190613fe0565b60405180910390a35050565b6000600560008473ffffffffffffffffffffffffffffffffffffffff1673ffffffffffffffffffffffffffffffffffffffff16815260200190815260200160002060008373ffffffffffffffffffffffffffffffffffffffff1673ffffffffffffffffffffffffffffffffffffffff16815260200190815260200160002060009054906101000a900460ff16905092915050565b60005b82518110156117695760008382815181106116ea576116e9613542565b5b602002602001015103611732576040517f08c379a000000000000000000000000000000000000000000000000000000000815260040161172990614071565b60405180910390fd5b6117568284838151811061174957611748613542565b5b602002602001015161069c565b8080611761906138f9565b9150506116cc565b503073ffffffffffffffffffffffffffffffffffffffff16427fa7201e63d9602f8beee1265e5baa4eb83f9bdd96609c39f04e844ba9ec2a3ada8433856040516117b5939291906139ff565b60405180910390a35050565b600b60006117cf9190612747565b60005b8281101561198c576117e460076120d0565b60006117f060076120e6565b90506117fc33826120f4565b6118208184848151811061181357611812613542565b5b60200260200101516123db565b336008600083815260200190815260200160002060000160006101000a81548173ffffffffffffffffffffffffffffffffffffffff021916908373ffffffffffffffffffffffffffffffffffffffff16021790555060086000828152602001908152602001600020600101339080600181540180825580915050600190039060005260206000200160009091909190916101000a81548173ffffffffffffffffffffffffffffffffffffffff021916908373ffffffffffffffffffffffffffffffffffffffff16021790555080600860008381526020019081526020016000206002018190555082828151811061191a57611919613542565b5b60200260200101516008600083815260200190815260200160002060030190816119449190613ce7565b5061194f308261069c565b600b819080600181540180825580915050600190039060005260206000200160009091909190915055508080611984906138f9565b9150506117d2565b503373ffffffffffffffffffffffffffffffffffffffff163073ffffffffffffffffffffffffffffffffffffffff167ff745d19d58403973a3484bea18f0fb5d5eac486fc3ef7eb8be7426a2a7205cde42600b6040516119ed929190614167565b60405180910390a35050565b611a0382826123db565b80600860008481526020019081526020016000206003019081611a269190613ce7565b503373ffffffffffffffffffffffffffffffffffffffff163073ffffffffffffffffffffffffffffffffffffffff167f369904f0a70cb3d675e71004a678fbfaf11d12745371f94814129c7fcd3e9ea8428585604051611a8893929190614197565b60405180910390a35050565b60007f01ffc9a7000000000000000000000000000000000000000000000000000000007bffffffffffffffffffffffffffffffffffffffffffffffffffffffff1916827bffffffffffffffffffffffffffffffffffffffffffffffffffffffff1916149050919050565b60008073ffffffffffffffffffffffffffffffffffffffff166002600084815260200190815260200160002060009054906101000a900473ffffffffffffffffffffffffffffffffffffffff1673ffffffffffffffffffffffffffffffffffffffff1614159050919050565b600033905090565b816004600083815260200190815260200160002060006101000a81548173ffffffffffffffffffffffffffffffffffffffff021916908373ffffffffffffffffffffffffffffffffffffffff160217905550808273ffffffffffffffffffffffffffffffffffffffff16611be583610b4d565b73ffffffffffffffffffffffffffffffffffffffff167f8c5be1e5ebec7d5bd14f71427d1e84f3dd0314c0f7b2291e5b200ac8c7c3b92560405160405180910390a45050565b6000611c3682611afe565b611c75576040517f08c379a0000000000000000000000000000000000000000000000000000000008152600401611c6c90614247565b60405180910390fd5b6000611c8083610b4d565b90508073ffffffffffffffffffffffffffffffffffffffff168473ffffffffffffffffffffffffffffffffffffffff161480611cef57508373ffffffffffffffffffffffffffffffffffffffff16611cd784610617565b73ffffffffffffffffffffffffffffffffffffffff16145b80611d005750611cff8185611635565b5b91505092915050565b8273ffffffffffffffffffffffffffffffffffffffff16611d2982610b4d565b73ffffffffffffffffffffffffffffffffffffffff1614611d7f576040517f08c379a0000000000000000000000000000000000000000000000000000000008152600401611d76906142d9565b60405180910390fd5b600073ffffffffffffffffffffffffffffffffffffffff168273ffffffffffffffffffffffffffffffffffffffff1603611dee576040517f08c379a0000000000000000000000000000000000000000000000000000000008152600401611de59061436b565b60405180910390fd5b611df9838383612448565b611e04600082611b72565b6001600360008573ffffffffffffffffffffffffffffffffffffffff1673ffffffffffffffffffffffffffffffffffffffff1681526020019081526020016000206000828254611e54919061350e565b925050819055506001600360008473ffffffffffffffffffffffffffffffffffffffff1673ffffffffffffffffffffffffffffffffffffffff1681526020019081526020016000206000828254611eab919061438b565b92505081905550816002600083815260200190815260200160002060006101000a81548173ffffffffffffffffffffffffffffffffffffffff021916908373ffffffffffffffffffffffffffffffffffffffff160217905550808273ffffffffffffffffffffffffffffffffffffffff168473ffffffffffffffffffffffffffffffffffffffff167fddf252ad1be2c89b69c2b068fc378daa952ba7f163c4a11628f55a4df523b3ef60405160405180910390a4505050565b8173ffffffffffffffffffffffffffffffffffffffff168373ffffffffffffffffffffffffffffffffffffffff1603611fd2576040517f08c379a0000000000000000000000000000000000000000000000000000000008152600401611fc99061440b565b60405180910390fd5b80600560008573ffffffffffffffffffffffffffffffffffffffff1673ffffffffffffffffffffffffffffffffffffffff16815260200190815260200160002060008473ffffffffffffffffffffffffffffffffffffffff1673ffffffffffffffffffffffffffffffffffffffff16815260200190815260200160002060006101000a81548160ff0219169083151502179055508173ffffffffffffffffffffffffffffffffffffffff168373ffffffffffffffffffffffffffffffffffffffff167f17307eab39ab6107e8899845ad3d59bd9653f200f220920489ca2b5937696c31836040516120c39190612839565b60405180910390a3505050565b6001816000016000828254019250508190555050565b600081600001549050919050565b600073ffffffffffffffffffffffffffffffffffffffff168273ffffffffffffffffffffffffffffffffffffffff1603612163576040517f08c379a000000000000000000000000000000000000000000000000000000000815260040161215a90614477565b60405180910390fd5b61216c81611afe565b156121ac576040517f08c379a00000000000000000000000000000000000000000000000000000000081526004016121a3906144e3565b60405180910390fd5b6121b860008383612448565b6001600360008473ffffffffffffffffffffffffffffffffffffffff1673ffffffffffffffffffffffffffffffffffffffff1681526020019081526020016000206000828254612208919061438b565b92505081905550816002600083815260200190815260200160002060006101000a81548173ffffffffffffffffffffffffffffffffffffffff021916908373ffffffffffffffffffffffffffffffffffffffff160217905550808273ffffffffffffffffffffffffffffffffffffffff16600073ffffffffffffffffffffffffffffffffffffffff167fddf252ad1be2c89b69c2b068fc378daa952ba7f163c4a11628f55a4df523b3ef60405160405180910390a45050565b6122cc848484611d09565b6122d88484848461244d565b612317576040517f08c379a000000000000000000000000000000000000000000000000000000000815260040161230e90614575565b60405180910390fd5b50505050565b606060405180602001604052806000815250905090565b606061233f82611afe565b61237e576040517f08c379a000000000000000000000000000000000000000000000000000000000815260040161237590614607565b60405180910390fd5b600061238861231d565b905060008151116123a857604051806020016040528060008152506123d3565b806123b2846125d4565b6040516020016123c3929190613eb0565b6040516020818303038152906040525b915050919050565b6123e482611afe565b612423576040517f08c379a000000000000000000000000000000000000000000000000000000000815260040161241a90614699565b60405180910390fd5b806006600084815260200190815260200160002090816124439190613ce7565b505050565b505050565b600061246e8473ffffffffffffffffffffffffffffffffffffffff16612734565b156125c7578373ffffffffffffffffffffffffffffffffffffffff1663150b7a02612497611b6a565b8786866040518563ffffffff1660e01b81526004016124b9949392919061470e565b6020604051808303816000875af19250505080156124f557506040513d601f19601f820116820180604052508101906124f2919061476f565b60015b612577573d8060008114612525576040519150601f19603f3d011682016040523d82523d6000602084013e61252a565b606091505b50600081510361256f576040517f08c379a000000000000000000000000000000000000000000000000000000000815260040161256690614575565b60405180910390fd5b805181602001fd5b63150b7a0260e01b7bffffffffffffffffffffffffffffffffffffffffffffffffffffffff1916817bffffffffffffffffffffffffffffffffffffffffffffffffffffffff1916149150506125cc565b600190505b949350505050565b60606000820361261b576040518060400160405280600181526020017f3000000000000000000000000000000000000000000000000000000000000000815250905061272f565b600082905060005b6000821461264d578080612636906138f9565b915050600a8261264691906147cb565b9150612623565b60008167ffffffffffffffff81111561266957612668612a3b565b5b6040519080825280601f01601f19166020018201604052801561269b5781602001600182028036833780820191505090505b5090505b60008514612728576001826126b4919061350e565b9150600a856126c391906147fc565b60306126cf919061438b565b60f81b8183815181106126e5576126e4613542565b5b60200101907effffffffffffffffffffffffffffffffffffffffffffffffffffffffffffff1916908160001a905350600a8561272191906147cb565b945061269f565b8093505050505b919050565b600080823b905060008111915050919050565b50805460008255906000526020600020908101906127659190612768565b50565b5b80821115612781576000816000905550600101612769565b5090565b6000604051905090565b600080fd5b600080fd5b60007fffffffff0000000000000000000000000000000000000000000000000000000082169050919050565b6127ce81612799565b81146127d957600080fd5b50565b6000813590506127eb816127c5565b92915050565b6000602082840312156128075761280661278f565b5b6000612815848285016127dc565b91505092915050565b60008115159050919050565b6128338161281e565b82525050565b600060208201905061284e600083018461282a565b92915050565b600081519050919050565b600082825260208201905092915050565b60005b8381101561288e578082015181840152602081019050612873565b60008484015250505050565b6000601f19601f8301169050919050565b60006128b682612854565b6128c0818561285f565b93506128d0818560208601612870565b6128d98161289a565b840191505092915050565b600060208201905081810360008301526128fe81846128ab565b905092915050565b6000819050919050565b61291981612906565b811461292457600080fd5b50565b60008135905061293681612910565b92915050565b6000602082840312156129525761295161278f565b5b600061296084828501612927565b91505092915050565b600073ffffffffffffffffffffffffffffffffffffffff82169050919050565b600061299482612969565b9050919050565b6129a481612989565b82525050565b60006020820190506129bf600083018461299b565b92915050565b6129ce81612989565b81146129d957600080fd5b50565b6000813590506129eb816129c5565b92915050565b60008060408385031215612a0857612a0761278f565b5b6000612a16858286016129dc565b9250506020612a2785828601612927565b9150509250929050565b600080fd5b600080fd5b7f4e487b7100000000000000000000000000000000000000000000000000000000600052604160045260246000fd5b612a738261289a565b810181811067ffffffffffffffff82111715612a9257612a91612a3b565b5b80604052505050565b6000612aa5612785565b9050612ab18282612a6a565b919050565b600067ffffffffffffffff821115612ad157612ad0612a3b565b5b612ada8261289a565b9050602081019050919050565b82818337600083830152505050565b6000612b09612b0484612ab6565b612a9b565b905082815260208101848484011115612b2557612b24612a36565b5b612b30848285612ae7565b509392505050565b600082601f830112612b4d57612b4c612a31565b5b8135612b5d848260208601612af6565b91505092915050565b60008060008060808587031215612b8057612b7f61278f565b5b6000612b8e878288016129dc565b9450506020612b9f878288016129dc565b9350506040612bb087828801612927565b925050606085013567ffffffffffffffff811115612bd157612bd0612794565b5b612bdd87828801612b38565b91505092959194509250565b612bf281612799565b82525050565b6000602082019050612c0d6000830184612be9565b92915050565b600080600060608486031215612c2c57612c2b61278f565b5b6000612c3a868287016129dc565b9350506020612c4b868287016129dc565b9250506040612c5c86828701612927565b9150509250925092565b60008060408385031215612c7d57612c7c61278f565b5b6000612c8b85828601612927565b9250506020612c9c858286016129dc565b9150509250929050565b600067ffffffffffffffff821115612cc157612cc0612a3b565b5b602082029050602081019050919050565b600080fd5b6000612cea612ce584612ca6565b612a9b565b90508083825260208201905060208402830185811115612d0d57612d0c612cd2565b5b835b81811015612d365780612d228882612927565b845260208401935050602081019050612d0f565b5050509392505050565b600082601f830112612d5557612d54612a31565b5b8135612d65848260208601612cd7565b91505092915050565b600080600060608486031215612d8757612d8661278f565b5b600084013567ffffffffffffffff811115612da557612da4612794565b5b612db186828701612d40565b9350506020612dc2868287016129dc565b9250506040612dd3868287016129dc565b9150509250925092565b600060208284031215612df357612df261278f565b5b6000612e01848285016129dc565b91505092915050565b612e1381612906565b82525050565b6000602082019050612e2e6000830184612e0a565b92915050565b612e3d8161281e565b8114612e4857600080fd5b50565b600081359050612e5a81612e34565b92915050565b60008060408385031215612e7757612e7661278f565b5b6000612e85858286016129dc565b9250506020612e9685828601612e4b565b9150509250929050565b600067ffffffffffffffff821115612ebb57612eba612a3b565b5b612ec48261289a565b9050602081019050919050565b6000612ee4612edf84612ea0565b612a9b565b905082815260208101848484011115612f0057612eff612a36565b5b612f0b848285612ae7565b509392505050565b600082601f830112612f2857612f27612a31565b5b8135612f38848260208601612ed1565b91505092915050565b600060208284031215612f5757612f5661278f565b5b600082013567ffffffffffffffff811115612f7557612f74612794565b5b612f8184828501612f13565b91505092915050565b600067ffffffffffffffff821115612fa557612fa4612a3b565b5b602082029050602081019050919050565b6000612fc9612fc484612f8a565b612a9b565b90508083825260208201905060208402830185811115612fec57612feb612cd2565b5b835b8181101561303357803567ffffffffffffffff81111561301157613010612a31565b5b80860161301e8982612f13565b85526020850194505050602081019050612fee565b5050509392505050565b600082601f83011261305257613051612a31565b5b8135613062848260208601612fb6565b91505092915050565b600080604083850312156130825761308161278f565b5b600083013567ffffffffffffffff8111156130a05761309f612794565b5b6130ac85828601612d40565b925050602083013567ffffffffffffffff8111156130cd576130cc612794565b5b6130d98582860161303d565b9150509250929050565b600080604083850312156130fa576130f961278f565b5b6000613108858286016129dc565b9250506020613119858286016129dc565b9150509250929050565b6000806040838503121561313a5761313961278f565b5b600083013567ffffffffffffffff81111561315857613157612794565b5b61316485828601612d40565b9250506020613175858286016129dc565b9150509250929050565b600080604083850312156131965761319561278f565b5b60006131a485828601612927565b925050602083013567ffffffffffffffff8111156131c5576131c4612794565b5b6131d18582860161303d565b9150509250929050565b600080604083850312156131f2576131f161278f565b5b600061320085828601612927565b925050602083013567ffffffffffffffff81111561322157613220612794565b5b61322d85828601612f13565b9150509250929050565b7f4e487b7100000000000000000000000000000000000000000000000000000000600052602260045260246000fd5b6000600282049050600182168061327e57607f821691505b60208210810361329157613290613237565b5b50919050565b7f4552433732313a20617070726f76656420717565727920666f72206e6f6e657860008201527f697374656e7420746f6b656e0000000000000000000000000000000000000000602082015250565b60006132f3602c8361285f565b91506132fe82613297565b604082019050919050565b60006020820190508181036000830152613322816132e6565b9050919050565b7f4552433732313a20617070726f76616c20746f2063757272656e74206f776e6560008201527f7200000000000000000000000000000000000000000000000000000000000000602082015250565b600061338560218361285f565b915061339082613329565b604082019050919050565b600060208201905081810360008301526133b481613378565b9050919050565b7f4552433732313a20617070726f76652063616c6c6572206973206e6f74206f7760008201527f6e6572206e6f7220617070726f76656420666f7220616c6c0000000000000000602082015250565b600061341760388361285f565b9150613422826133bb565b604082019050919050565b600060208201905081810360008301526134468161340a565b9050919050565b7f4552433732313a207472616e736665722063616c6c6572206973206e6f74206f60008201527f776e6572206e6f7220617070726f766564000000000000000000000000000000602082015250565b60006134a960318361285f565b91506134b48261344d565b604082019050919050565b600060208201905081810360008301526134d88161349c565b9050919050565b7f4e487b7100000000000000000000000000000000000000000000000000000000600052601160045260246000fd5b600061351982612906565b915061352483612906565b925082820390508181111561353c5761353b6134df565b5b92915050565b7f4e487b7100000000000000000000000000000000000000000000000000000000600052603260045260246000fd5b7f5453533a544144444e5300000000000000000000000000000000000000000000600082015250565b60006135a7600a8361285f565b91506135b282613571565b602082019050919050565b600060208201905081810360008301526135d68161359a565b9050919050565b7f5453533a464144444e5300000000000000000000000000000000000000000000600082015250565b6000613613600a8361285f565b915061361e826135dd565b602082019050919050565b6000602082019050818103600083015261364281613606565b9050919050565b7f5453533a43545300000000000000000000000000000000000000000000000000600082015250565b600061367f60078361285f565b915061368a82613649565b602082019050919050565b600060208201905081810360008301526136ae81613672565b9050919050565b60006060820190506136ca600083018661299b565b6136d7602083018561299b565b6136e46040830184612e0a565b949350505050565b60006060820190506137016000830186612e0a565b61370e602083018561299b565b61371b604083018461299b565b949350505050565b7f4552433732313a206f776e657220717565727920666f72206e6f6e657869737460008201527f656e7420746f6b656e0000000000000000000000000000000000000000000000602082015250565b600061377f60298361285f565b915061378a82613723565b604082019050919050565b600060208201905081810360008301526137ae81613772565b9050919050565b7f5453423a544144444e5300000000000000000000000000000000000000000000600082015250565b60006137eb600a8361285f565b91506137f6826137b5565b602082019050919050565b6000602082019050818103600083015261381a816137de565b9050919050565b7f5453423a464144444e5300000000000000000000000000000000000000000000600082015250565b6000613857600a8361285f565b915061386282613821565b602082019050919050565b600060208201905081810360008301526138868161384a565b9050919050565b7f5453423a43545300000000000000000000000000000000000000000000000000600082015250565b60006138c360078361285f565b91506138ce8261388d565b602082019050919050565b600060208201905081810360008301526138f2816138b6565b9050919050565b600061390482612906565b91507fffffffffffffffffffffffffffffffffffffffffffffffffffffffffffffffff8203613936576139356134df565b5b600182019050919050565b600081519050919050565b600082825260208201905092915050565b6000819050602082019050919050565b61397681612906565b82525050565b6000613988838361396d565b60208301905092915050565b6000602082019050919050565b60006139ac82613941565b6139b6818561394c565b93506139c18361395d565b8060005b838110156139f25781516139d9888261397c565b97506139e483613994565b9250506001810190506139c5565b5085935050505092915050565b60006060820190508181036000830152613a1981866139a1565b9050613a28602083018561299b565b613a35604083018461299b565b949350505050565b7f4552433732313a2062616c616e636520717565727920666f7220746865207a6560008201527f726f206164647265737300000000000000000000000000000000000000000000602082015250565b6000613a99602a8361285f565b9150613aa482613a3d565b604082019050919050565b60006020820190508181036000830152613ac881613a8c565b9050919050565b7f47415443533a4954000000000000000000000000000000000000000000000000600082015250565b6000613b0560088361285f565b9150613b1082613acf565b602082019050919050565b60006020820190508181036000830152613b3481613af8565b9050919050565b60008190508160005260206000209050919050565b60006020601f8301049050919050565b600082821b905092915050565b600060088302613b9d7fffffffffffffffffffffffffffffffffffffffffffffffffffffffffffffffff82613b60565b613ba78683613b60565b95508019841693508086168417925050509392505050565b6000819050919050565b6000613be4613bdf613bda84612906565b613bbf565b612906565b9050919050565b6000819050919050565b613bfe83613bc9565b613c12613c0a82613beb565b848454613b6d565b825550505050565b600090565b613c27613c1a565b613c32818484613bf5565b505050565b5b81811015613c5657613c4b600082613c1f565b600181019050613c38565b5050565b601f821115613c9b57613c6c81613b3b565b613c7584613b50565b81016020851015613c84578190505b613c98613c9085613b50565b830182613c37565b50505b505050565b600082821c905092915050565b6000613cbe60001984600802613ca0565b1980831691505092915050565b6000613cd78383613cad565b9150826002028217905092915050565b613cf082612854565b67ffffffffffffffff811115613d0957613d08612a3b565b5b613d138254613266565b613d1e828285613c5a565b600060209050601f831160018114613d515760008415613d3f578287015190505b613d498582613ccb565b865550613db1565b601f198416613d5f86613b3b565b60005b82811015613d8757848901518255600182019150602085019450602081019050613d62565b86831015613da45784890151613da0601f891682613cad565b8355505b6001600288020188555050505b505050505050565b6000604082019050613dce6000830185612e0a565b613ddb6020830184612e0a565b9392505050565b7f45524337323155524953746f726167653a2055524920717565727920666f722060008201527f6e6f6e6578697374656e7420746f6b656e000000000000000000000000000000602082015250565b6000613e3e60318361285f565b9150613e4982613de2565b604082019050919050565b60006020820190508181036000830152613e6d81613e31565b9050919050565b600081905092915050565b6000613e8a82612854565b613e948185613e74565b9350613ea4818560208601612870565b80840191505092915050565b6000613ebc8285613e7f565b9150613ec88284613e7f565b91508190509392505050565b600081519050919050565b600082825260208201905092915050565b6000819050602082019050919050565b600082825260208201905092915050565b6000613f1c82612854565b613f268185613f00565b9350613f36818560208601612870565b613f3f8161289a565b840191505092915050565b6000613f568383613f11565b905092915050565b6000602082019050919050565b6000613f7682613ed4565b613f808185613edf565b935083602082028501613f9285613ef0565b8060005b85811015613fce5784840389528151613faf8582613f4a565b9450613fba83613f5e565b925060208a01995050600181019050613f96565b50829750879550505050505092915050565b6000606082019050613ff56000830186612e0a565b818103602083015261400781856139a1565b9050818103604083015261401b8184613f6b565b9050949350505050565b7f496e76616c69646520746f6b656e000000000000000000000000000000000000600082015250565b600061405b600e8361285f565b915061406682614025565b602082019050919050565b6000602082019050818103600083015261408a8161404e565b9050919050565b600081549050919050565b60008190508160005260206000209050919050565b60008160001c9050919050565b6000819050919050565b60006140db6140d6836140b1565b6140be565b9050919050565b60006140ee82546140c8565b9050919050565b6000600182019050919050565b600061410d82614091565b614117818561394c565b93506141228361409c565b8060005b8381101561415a57614137826140e2565b614141888261397c565b975061414c836140f5565b925050600181019050614126565b5085935050505092915050565b600060408201905061417c6000830185612e0a565b818103602083015261418e8184614102565b90509392505050565b60006060820190506141ac6000830186612e0a565b6141b96020830185612e0a565b81810360408301526141cb81846128ab565b9050949350505050565b7f4552433732313a206f70657261746f7220717565727920666f72206e6f6e657860008201527f697374656e7420746f6b656e0000000000000000000000000000000000000000602082015250565b6000614231602c8361285f565b915061423c826141d5565b604082019050919050565b6000602082019050818103600083015261426081614224565b9050919050565b7f4552433732313a207472616e73666572206f6620746f6b656e2074686174206960008201527f73206e6f74206f776e0000000000000000000000000000000000000000000000602082015250565b60006142c360298361285f565b91506142ce82614267565b604082019050919050565b600060208201905081810360008301526142f2816142b6565b9050919050565b7f4552433732313a207472616e7366657220746f20746865207a65726f2061646460008201527f7265737300000000000000000000000000000000000000000000000000000000602082015250565b600061435560248361285f565b9150614360826142f9565b604082019050919050565b6000602082019050818103600083015261438481614348565b9050919050565b600061439682612906565b91506143a183612906565b92508282019050808211156143b9576143b86134df565b5b92915050565b7f4552433732313a20617070726f766520746f2063616c6c657200000000000000600082015250565b60006143f560198361285f565b9150614400826143bf565b602082019050919050565b60006020820190508181036000830152614424816143e8565b9050919050565b7f4552433732313a206d696e7420746f20746865207a65726f2061646472657373600082015250565b600061446160208361285f565b915061446c8261442b565b602082019050919050565b6000602082019050818103600083015261449081614454565b9050919050565b7f4552433732313a20746f6b656e20616c7265616479206d696e74656400000000600082015250565b60006144cd601c8361285f565b91506144d882614497565b602082019050919050565b600060208201905081810360008301526144fc816144c0565b9050919050565b7f4552433732313a207472616e7366657220746f206e6f6e20455243373231526560008201527f63656976657220696d706c656d656e7465720000000000000000000000000000602082015250565b600061455f60328361285f565b915061456a82614503565b604082019050919050565b6000602082019050818103600083015261458e81614552565b9050919050565b7f4552433732314d657461646174613a2055524920717565727920666f72206e6f60008201527f6e6578697374656e7420746f6b656e0000000000000000000000000000000000602082015250565b60006145f1602f8361285f565b91506145fc82614595565b604082019050919050565b60006020820190508181036000830152614620816145e4565b9050919050565b7f45524337323155524953746f726167653a2055524920736574206f66206e6f6e60008201527f6578697374656e7420746f6b656e000000000000000000000000000000000000602082015250565b6000614683602e8361285f565b915061468e82614627565b604082019050919050565b600060208201905081810360008301526146b281614676565b9050919050565b600081519050919050565b600082825260208201905092915050565b60006146e0826146b9565b6146ea81856146c4565b93506146fa818560208601612870565b6147038161289a565b840191505092915050565b6000608082019050614723600083018761299b565b614730602083018661299b565b61473d6040830185612e0a565b818103606083015261474f81846146d5565b905095945050505050565b600081519050614769816127c5565b92915050565b6000602082840312156147855761478461278f565b5b60006147938482850161475a565b91505092915050565b7f4e487b7100000000000000000000000000000000000000000000000000000000600052601260045260246000fd5b60006147d682612906565b91506147e183612906565b9250826147f1576147f061479c565b5b828204905092915050565b600061480782612906565b915061481283612906565b9250826148225761482161479c565b5b82820690509291505056fea2646970667358221220ee3f985a853fe9342652f3ea522f64f7a2ebe85b1dea49c41b4ca35d41718c9c64736f6c63430008130033a2646970667358221220ff1368de86b25ebf0f642515665e0d329b553b6ebcdc0eb36c811d81e111456264736f6c63430008130033",
  "immutableReferences": {},
  "source": "// SPDX-License-Identifier: MIT\r\npragma solidity ^0.8.0;\r\n\r\nimport '@openzeppelin/contracts/token/ERC721/ERC721.sol';\r\nimport '@openzeppelin/contracts/utils/Counters.sol';\r\nimport '@openzeppelin/contracts/token/ERC721/extensions/ERC721URIStorage.sol';\r\nimport '@openzeppelin/contracts/token/ERC721/extensions/ERC721Enumerable.sol';\r\nimport '@openzeppelin/contracts/token/ERC721/extensions/IERC721Enumerable.sol';\r\nimport '@openzeppelin/contracts/token/ERC721/utils/ERC721Holder.sol';\r\nimport \"@openzeppelin/contracts/token/ERC20/IERC20.sol\";\r\n\r\ncontract MedRep {\r\n    MediRecords[] allDigiRepss;\r\n    address Admin;\r\n    uint256 FactoryRoyalty = 25; //default\r\n\r\n    event NewCollection(\r\n        uint256 indexed date,\r\n        address collectionAddr,\r\n        address indexed from,\r\n        string title,\r\n        string symbol,\r\n        uint256 indexed royalty\r\n    );\r\n\r\n    mapping(address => uint256) RoyaltyPayers;\r\n\r\n    event FacRoyalty(\r\n        uint256 indexed date,\r\n        address indexed from,\r\n        address collectionAddr,\r\n        uint256 indexed royalty\r\n    );\r\n\r\n    constructor(address admin) {\r\n        Admin = admin;\r\n    }\r\n\r\n    function createTCollect(string memory title, string memory symbol)\r\n        external\r\n    {\r\n        MediRecords digiReps = new MediRecords(\r\n            title,\r\n            symbol,\r\n            msg.sender,\r\n            address(this)\r\n        );\r\n        allDigiRepss.push(digiReps);\r\n        emit NewCollection(\r\n            block.timestamp,\r\n            address(digiReps),\r\n            msg.sender,\r\n            title,\r\n            symbol,\r\n            FactoryRoyalty\r\n        );\r\n    }\r\n\r\n    /*Overridden functions*/\r\n    /*put this function in get live contract collection and verify collection purposes */\r\n    function getAllMediRecords() external view returns (MediRecords[] memory) {\r\n        return allDigiRepss;\r\n    }\r\n\r\n    function royaltyPay(address royaltyPayer) external payable {\r\n        RoyaltyPayers[royaltyPayer] += msg.value;\r\n        emit FacRoyalty(block.timestamp, royaltyPayer, msg.sender, msg.value);\r\n    }\r\n\r\n    function getRoyaltyPayer(address payer) external view returns (uint256) {\r\n        return RoyaltyPayers[payer];\r\n    }\r\n\r\n    function withDraw(uint256 amount) external {\r\n        require(Admin == msg.sender, \"WD:NA\");\r\n        require(address(this).balance > amount, \"WD:IB\");\r\n        payable(Admin).transfer(amount);\r\n    }\r\n}\r\n\r\ncontract MediRecords is ERC721URIStorage, ERC721Holder {\r\n    using Counters for Counters.Counter;\r\n    Counters.Counter private _tokenIds;\r\n\r\n    struct Token_structure {\r\n        address tokenCreator;\r\n        address[] preOwnerList;\r\n        uint256 tokenID;\r\n        string data;\r\n    }\r\n\r\n    mapping(uint256 => Token_structure) token_List;\r\n\r\n    event MintNFT_bulk(\r\n        uint256 date,\r\n        address indexed collectionAddr,\r\n        address indexed from,\r\n        uint256[] tokenid\r\n    );\r\n    event TransferNFT_bulk(\r\n        uint256 indexed date,\r\n        address indexed collectionAddr,\r\n        uint256[] tokenid,\r\n        address from,\r\n        address to\r\n    );\r\n    event MintNFT_single(\r\n        uint256 date,\r\n        address indexed collectionAddr,\r\n        address indexed from,\r\n        uint256 tokenid\r\n    );\r\n\r\n    event TransferNFT_single(\r\n        uint256 indexed date,\r\n        address indexed collectionAddr,\r\n        uint256 tokenid,\r\n        address from,\r\n        address to\r\n    );\r\n\r\n    event ApproveAdminToNFT_single(\r\n        uint256 indexed date,\r\n        address indexed collectionAddr,\r\n        uint256 tokenid,\r\n        address from,\r\n        address to\r\n    );\r\n    event ApproveAdminToNFT_bulk(\r\n        uint256 indexed date,\r\n        address indexed collectionAddr,\r\n        uint256[] tokenid,\r\n        address from,\r\n        address to\r\n    );\r\n    event NFTUriSet_bulk(\r\n        uint256 date,\r\n        address indexed collectionAddr,\r\n        address indexed from,\r\n        uint256[] tokenid,\r\n        string[] tkuri\r\n    );\r\n    event NFTUriSet_single(\r\n        uint256 date,\r\n        address indexed collectionAddr,\r\n        address indexed from,\r\n        uint256 tokenid,\r\n        string tkuri\r\n    );\r\n    address Admin;\r\n    address SuperAdmin;\r\n\r\n    constructor(\r\n        string memory title,\r\n        string memory symbol,\r\n        address admin,\r\n        address superadmin\r\n    ) ERC721(title, symbol) {\r\n        Admin = admin;\r\n        SuperAdmin = superadmin;\r\n    }\r\n\r\n    function adminOf() external view returns (address) {\r\n        return Admin;\r\n    }\r\n\r\n    //Single Operations\r\n    function mint_nemwNFT_single(string memory data) external {\r\n        //Minting charge\r\n\r\n        _tokenIds.increment();\r\n        uint256 newItemId = _tokenIds.current();\r\n        _mint(msg.sender, newItemId); //msg.sender is the factory contract instance adddress\r\n        //_setTokenURI(newItemId, data);\r\n        //require(msg.sender==Admin,\"Admin can only approve the token\");\r\n        //approve(address(this), newItemId);//give approval to contract to transfer this token to other\r\n\r\n        token_List[newItemId].tokenCreator = msg.sender;\r\n        token_List[newItemId].preOwnerList.push(msg.sender);\r\n        token_List[newItemId].tokenID = newItemId;\r\n        token_List[newItemId].data = data;\r\n\r\n        //safeTransferFrom(msg.sender,address(this),newItemId);\r\n        approve(address(this), newItemId);\r\n\r\n        emit MintNFT_single(\r\n            block.timestamp,\r\n            address(this),\r\n            msg.sender,\r\n            newItemId\r\n        );\r\n    }\r\n\r\n    function update_NFTtokenUri_single(uint256 tokenid, string memory data)\r\n        external\r\n    {\r\n        _setTokenURI(tokenid, data);\r\n        token_List[tokenid].data = data;\r\n        emit NFTUriSet_single(\r\n            block.timestamp,\r\n            address(this),\r\n            msg.sender,\r\n            tokenid,\r\n            data\r\n        );\r\n    }\r\n\r\n    function update_NFTtokenUri_bulk(\r\n        uint256[] memory tokenid,\r\n        string[] memory data\r\n    ) external {\r\n        for (uint256 i = 0; i < tokenid.length; i++) {\r\n            _setTokenURI(tokenid[i], data[i]);\r\n            token_List[tokenid[i]].data = data[i];\r\n        }\r\n        emit NFTUriSet_bulk(\r\n            block.timestamp,\r\n            address(this),\r\n            msg.sender,\r\n            tokenid,\r\n            data\r\n        );\r\n    }\r\n\r\n    function TransferNFT_safe_single(uint256 tokenid, address to) external {\r\n        address from = token_List[tokenid].preOwnerList[\r\n            token_List[tokenid].preOwnerList.length - 1\r\n        ];\r\n\r\n        require(to != address(0), \"TSS:TADDNS\"); //to is not specified\r\n        require(from != address(0), \"TSS:FADDNS\"); //from is not specified\r\n        require(to != from, \"TSS:CTS\"); //cannot transfer to self\r\n\r\n        //transfer token\r\n        this.safeTransferFrom(from, to, tokenid);\r\n        token_List[tokenid].preOwnerList.push(to);\r\n\r\n        //emit event of transfering the nft to its rightful owner\r\n        emit TransferNFT_single(\r\n            block.timestamp,\r\n            address(this),\r\n            tokenid,\r\n            from,\r\n            to\r\n        );\r\n    }\r\n\r\n    //Bulk Operations\r\n    uint256[] evt_tokenids;\r\n\r\n    function mint_nemwNFT_bulk(uint256 bulkcnt, string[] memory datas)\r\n        external\r\n    {\r\n        //reset event arrays\r\n        delete evt_tokenids;\r\n        for (uint256 i = 0; i < bulkcnt; i++) {\r\n            _tokenIds.increment();\r\n            uint256 newItemId = _tokenIds.current();\r\n            _mint(msg.sender, newItemId); //msg.sender is the factory contract instance adddress\r\n            _setTokenURI(newItemId, datas[i]);\r\n            //require(msg.sender==Admin,\"Admin can only approve the token\");\r\n            //approve(address(this), newItemId);//give approval to contract to transfer this token to other\r\n\r\n            token_List[newItemId].tokenCreator = msg.sender;\r\n            token_List[newItemId].preOwnerList.push(msg.sender);\r\n            token_List[newItemId].tokenID = newItemId;\r\n            token_List[newItemId].data = datas[i];\r\n            //safeTransferFrom(msg.sender,address(this),newItemId);\r\n            approve(address(this), newItemId);\r\n            evt_tokenids.push(newItemId);\r\n        }\r\n        emit MintNFT_bulk(\r\n            block.timestamp,\r\n            address(this),\r\n            msg.sender,\r\n            evt_tokenids\r\n        );\r\n    }\r\n\r\n    function transferNFT_safe_bulk(\r\n        uint256[] memory tokenid,\r\n        address merchant_or_owneraddr,\r\n        address nftowneraddr\r\n    ) external {\r\n        address to = nftowneraddr;\r\n        address from = merchant_or_owneraddr;\r\n        require(to != address(0), \"TSB:TADDNS\");\r\n        require(from != address(0), \"TSB:FADDNS\");\r\n        require(to != msg.sender, \"TSB:CTS\");\r\n\r\n        for (uint256 i = 0; i < tokenid.length; i++) {\r\n            //transfer token\r\n            this.safeTransferFrom(from, to, tokenid[i]);\r\n            token_List[tokenid[i]].preOwnerList.push(to);\r\n            //emit event of transfering the nft to its rightful owner\r\n        }\r\n        emit TransferNFT_bulk(\r\n            block.timestamp,\r\n            address(this),\r\n            tokenid,\r\n            msg.sender,\r\n            to\r\n        );\r\n    }\r\n\r\n    function giveApproval_to(uint256 tokenid, address to) external {\r\n        require(tokenid != 0, \"GATCS:IT\");\r\n        //approve token\r\n        approve(to, tokenid);\r\n        //approve(Admin,tokenid);\r\n        //emit Event of giving approval to Admin and merchant over the Diamond NFT\r\n        emit ApproveAdminToNFT_single(\r\n            block.timestamp,\r\n            address(this),\r\n            tokenid,\r\n            msg.sender,\r\n            to\r\n        );\r\n    }\r\n\r\n    function giveApproval_to_bulk(uint256[] memory tokenid, address to)\r\n        external\r\n    {\r\n        //bulk approval charge\r\n\r\n        for (uint256 i = 0; i < tokenid.length; i++) {\r\n            require(tokenid[i] != 0, \"Invalide token\");\r\n            //approve token\r\n            approve(to, tokenid[i]);\r\n            // approve(Admin,tokenid[i]);\r\n        }\r\n        //emit Event of giving approval to Admin over the Diamond NFT\r\n        emit ApproveAdminToNFT_bulk(\r\n            block.timestamp,\r\n            address(this),\r\n            tokenid,\r\n            msg.sender,\r\n            to\r\n        );\r\n    }\r\n\r\n    function getTokenData(uint256 tokenid)\r\n        external\r\n        view\r\n        returns (string memory)\r\n    {\r\n        return token_List[tokenid].data;\r\n    }\r\n}\r\n",
  "sourcePath": "D:\\AllT\\nftcan_phase2\\contracts\\MedRep.sol",
  "compiler": {
    "name": "solc",
    "version": "0.8.19+commit.7dd6d404.Emscripten.clang"
  },
  "schemaVersion": "3.4.4",
  "updatedAt": "2023-04-21T15:17:35.252Z",
  "devdoc": {
    "kind": "dev",
    "methods": {},
    "version": 1
  },
  "userdoc": {
    "kind": "user",
    "methods": {},
    "version": 1
  }
}